:020000040000FA
:1000000000700020ED040000090500000B05000051
:100010000D0500000F0500001105000000000000A4
:1000200000000000000000000000000013050000B8
:10003000150500000000000017050000190500006C
:100040001D0500001D0500001D0500001D05000028
:100050001D0500001D0500001D0500001D05000018
:100060001D0500001D0500001D0500001D05000008
:100070001D0500001D0500001D0500001D050000F8
:100080001D0500001D0500001D0500001D050000E8
:100090001D0500001D0500001D0500001D050000D8
:1000A0001D0500001D0500001D0500001D050000C8
:1000B0001D0500001D0500001D0500001D050000B8
:1000C0001D0500001D0500001D0500001D050000A8
:1000D0001D0500001D0500001D0500001D05000098
:1000E0001D0500001D0500001D0500001D05000088
:1000F0001D0500001D0500001D0500001D05000078
:100100001D0500001D0500001D0500001D05000067
:100110001D0500001D0500001D0500001D05000057
:100120001D0500001D0500001D0500001D05000047
:100130001D0500002D0800001D0500001D05000024
:100140001D0500001D0500001D0500001D05000027
:100150001D0500001D0500001D0500001D05000017
:100160001D0500001D0500001D0500001D05000007
:100170001D0500001D0500001D0500001D050000F7
:100180001D0500001D0500001D0500001D050000E7
:100190001D0500001D0500001D0500001D050000D7
:1001A0001D0500001D0500001D0500001D050000C7
:1001B0001D0500001D0500001D0500001D050000B7
:1001C0001D0500001D0500001D0500001D050000A7
:1001D0001D0500001D0500001D0500001D05000097
:1001E0001D0500001D0500001D0500001D05000087
:1001F0001D0500001D0500001D0500001D05000077
:100200001D0500001D0500001D0500001D05000066
:100210001D0500001D0500001D0500001D05000056
:100220001D0500001D0500001D0500001B05000048
:1002300000000000000000000000000000000000BE
:1002400000000000000000000000000000000000AE
:10025000000000000000000000000000000000009E
:10026000000000000000000000000000000000008E
:10027000000000000000000000000000000000007E
:10028000000000000000000000000000000000006E
:10029000000000000000000000000000000000005E
:1002A000000000000000000000000000000000004E
:1002B000000000000000000000000000000000003E
:1002C000000000000000000000000000000000002E
:1002D000000000000000000000000000000000001E
:1002E000000000000000000000000000000000000E
:1002F00000000000000000000000000000000000FE
:1003000000000000000000000000000000000000ED
:1003100000000000000000000000000000000000DD
:1003200000000000000000000000000000000000CD
:1003300000000000000000000000000000000000BD
:1003400000000000000000000000000000000000AD
:10035000000000000000000000000000000000009D
:10036000000000000000000000000000000000008D
:10037000000000000000000000000000000000007D
:10038000000000000000000000000000000000006D
:10039000000000000000000000000000000000005D
:1003A000000000000000000000000000000000004D
:1003B000000000000000000000000000000000003D
:1003C000000000000000000000000000000000002D
:1003D000000000000000000000000000000000001D
:1003E000000000000000000000000000000000000D
:1003F00000000000000000000000000000000000FD
:10040000FFFFFFFFFFFFFFFFFFFFFFFFFEFFFFFFFD
:1004100008ED00E000F002F800F02EF80AA090E8E5
:10042000000C82448344AAF10107DA4501D100F0AF
:1004300023F8AFF2090EBAE80F0013F0010F18BF4E
:10044000FB1A43F001031847440900005409000057
:100450000023002400250026103A28BF78C1FBD8CD
:10046000520728BF30C148BF0B6070471FB500F06E
:100470007FFC1FBD10B510BDDFF80CD0FFF7F6FFF5
:1004800000F0E0FB00F056F80070002003B4FFF726
:10049000F1FF03BC00F058F8300200000080FF1F9D
:1004A0000000000000000000300200009C0D000071
:1004B0009C0D00000084FF1F0084FF1F0084FF1FAD
:1004C00000000020240000200084FF1F0084FF1F84
:1004D0000084FF1F9C0D00009C0D00000000002008
:1004E000000000200080FF1F006C002072B60C4846
:1004F0000C4901600A6882F308880B4880470B4862
:10050000804762B60A488047FEE7FEE7FEE7FEE75F
:10051000FEE7FEE7FEE7FEE7FEE7FEE7FEE7000098
:1005200008ED00E000000000BD090000A50B000080
:100530001504000010B50446AFF300802046BDE866
:100540001040FFF7A3BF704701491820ABBEFEE77C
:100550002600020081B00090FFE70098E0B1FFE7BD
:1005600048F20000C4F2030000688005002812D59C
:10057000FFE700980138009048F20001C4F203013F
:10058000086840F21802C2F200021060086820F405
:1005900000700860FFE7E0E701B0704781B000201D
:1005A000009045F29001C4F20601086840F08040D6
:1005B000086044F20001C4F20201086840F0004003
:1005C000086044F20402C4F20202106820F40050F1
:1005D0001060086820F000400860FFE744F2000067
:1005E000C4F20200006800F080710020B0EB116FCF
:1005F00001D1FFE7F2E744F20401C4F20201062050
:10060000C0F2DB00086000200090FFE700987F2820
:100610000DD8FFE7009A44F28001C4F202010020E5
:1006200041F82200FFE7009801300090EEE700203B
:100630000090FFE700980F280ED8FFE7009A44F6D5
:100640008001C4F202014FF0FF3041F82200FFE7C1
:10065000009801300090EDE744F21001C4F202016D
:100660006FF06040086044F2C001C4F202014FF034
:100670008060086044F2C401C4F202014FF030709F
:10068000086044F20001C4F202011F200860FFE785
:1006900044F20000C4F20200006800F08071002003
:1006A000B0EB116F01D0FFE7F2E7FFE744F2000083
:1006B000C4F20200006800F000610020B0EBD16FCE
:1006C00001D0FFE7F2E701B07047000082B044F2CA
:1006D000C000C4F202000168C1F3026140F20002EE
:1006E000C2F20002116044F2C401C4F202010968BE
:1006F00021F0604140F20C02C2F200021160006879
:10070000C0F3034040F21001C2F200010860002073
:100710008DF80700FFE79DF80700012817DCFFE7C9
:100720009DF8071044F2C800C4F2020050F82100FE
:100730009DF8072040F20401C2F2000141F82200B6
:10074000FFE79DF8070001308DF80700E3E744F26A
:100750008000C4F20200006880B240F21401C2F2CC
:100760000001086044F20800C4F202000068009032
:1007700044F23001C4F2020110200860009808B968
:10078000FFE7FFE702B0704744F23001C4F2020114
:100790000120086040F22000C2F20000006844F22C
:1007A0008801C4F20201086044F28C01C4F2020123
:1007B0000020086044F28401C4F202014FF020706E
:1007C000086044F28001C4F202010020C0F64840F3
:1007D000086070474EF28421CEF200014FF00050C5
:1007E00008604EF20411CEF2000108604EF23D4165
:1007F000CEF200010D2008707047000044F2140191
:10080000C4F206011220C0F201600860FFE744F262
:100810001000C4F20600006800F070610620B0EB22
:10082000116F01D0FFE7F2E7704700004BF2300094
:10083000C4F2040001680020B0EB116F0FD0FFE795
:100840004BF23001C4F20401086840F08070086087
:1008500040F21C01C2F200010120087019E04BF2C5
:100860003400C4F2040001680020B0EB116F0FD017
:10087000FFE74BF23401C4F20401086840F08070D5
:10088000086040F21C01C2F2000100200870FFE77E
:10089000FFE7704745F22C11C4F206014FF080408B
:1008A00008604FF29401C4F20F01086808604BF22F
:1008B0003002C4F20402106840F4807010601068C6
:1008C00040F410201060086808604BF23401C4F254
:1008D0000401086840F480700860086840F4102043
:1008E000086045F23411C4F20601086840F0804007
:1008F00008604DF21001C4F20401086840F4A060E1
:1009000008604DF21401C4F20401086840F4A060CC
:100910000860704744F20411C4F20601086840F20E
:1009200001121043086044F20811C4F2060108687D
:1009300040F03400086044F20011C4F20601086877
:100940000860086840F001000860FFE744F200100A
:10095000C4F206000068C001002801D4FFE7F5E7F3
:100960007047000044F20061C4F2060108680860A4
:1009700044F20462C4F20602106840F20113184304
:10098000106044F20862C4F206024FF4C010106016
:1009900008680860106820F001001060086840F0E6
:1009A00001000860FFE744F20060C4F2060000683E
:1009B000C001002801D4FFE7F5E770474EF68851E3
:1009C000CEF20001086840F4700008604EF6347101
:1009D000CEF20001086820F08040086042F2040076
:1009E000C4F205004CF22051CDF6281101600068D8
:1009F00042F20001C4F2050142F22010086042F206
:100A00000801C4F205014FF6FF700860704700004E
:100A100045F2EC01C4F20601086820F0804008604D
:100A20004FF08240086045F22C11C4F206014FF0ED
:100A3000804008604BF23801C4F204010868086085
:100A40004BF24001C4F20301086840F00400086062
:100A50004BF24401C4F20301086840F00D00086045
:100A60004BF29001C4F20301002008604BF29401A4
:100A7000C4F203010C2008604BF20001C4F2030130
:100A80000860704780B545F23011C4F2060108686D
:100A900040F08040086045F2E001C4F206010868B9
:100AA00040F0824008604CF24001C4F20401086842
:100AB00040F4007008604CF23C01C4F20401086884
:100AC00040F40070086048F25401C4F20301086861
:100AD00040F004000860FFE748F25400C4F203004D
:100AE000006800F004010020B0EB910F01D1FFE796
:100AF000F2E748F28001C4F203010868086048F296
:100B00006401C4F203010868086048F20001C4F2FD
:100B100003010868086048F2140CC4F2030CDCF806
:100B2000000040F02000CCF8000048F20C03C4F2B2
:100B30000303186840F02000186048F24C02C4F229
:100B400003020020106048F2080EC4F2030E40F2C7
:100B5000E732CEF80020DCF8002042F00C02CCF89E
:100B6000002048F21802C4F2030210601A6842F032
:100B70000C021A6048F21002C4F20302106048F23C
:100B80000402C4F20302106048F26802C4F20302D5
:100B9000C720106008681B22C0F2030210430860DF
:100BA00080BD000085B040F29840C0F200000068AF
:100BB000029040F2A040C0F200000068019040F2B4
:100BC0009C40C0F200000068009000208DF80F00EB
:100BD00000980199884224D0FFE700200490FFE7A5
:100BE00004980299B0EB910F0CD2FFE70198049A98
:100BF00050F82200009941F82200FFE704980130E4
:100C00000490EDE740F29C40C0F2000000689DF8BF
:100C10000F2040F21041C0F2000151F8221008608C
:100C20000EE040F2A040C0F2000000689DF80F20E6
:100C300040F21041C0F2000151F822100860FFE7B5
:100C400005B0704780B582B000200190FFF722FE0A
:100C5000FFF760FEFFF786FEFFF7D0FDFFF7BAFD56
:100C6000FFF710FFFFF7D4FEFFF798FCFFE700F057
:100C700059F840F22001C2F20001086044F230004D
:100C8000C4F2020000680009C00748B1FFE7FFF79F
:100C90001DFD40F21C01C2F2000102200870FFE7B6
:100CA00040F21C00C2F200000078014600910128C9
:100CB00004D0FFE7009802280DD01DE048F218018B
:100CC000C4F20301002008604FF47A70FFF742FC81
:100CD000FFF75AFD25E048F21801C4F20301002095
:100CE000086040F20400C2F20000008848F21001DF
:100CF000C4F20301086014E048F21801C4F20301D1
:100D00004FF47A70086048F21001C4F20301002029
:100D1000086044F28001C4F202014FF000600860F4
:100D2000FFE7A4E781B000200090FFE74BF200004E
:100D3000C4F2030000680006002801D4FFE7F5E7CD
:100D40004BF24800C4F203000068009000984FF492
:100D50007A71414340F20110C0F21000A1FB002063
:100D6000091A00EB5100C00A0090009801B07047CA
:100D7000F1EE100A4FF6FF71C0F2C03120EA010017
:100D800040F04070E1EE100A704700009C0D00003A
:0C0D9000000000202400000050040000BF
:0400000500000415DE
:00000001FF
