:020000040800F2
:10000000680600208901000891010008930100089A
:100010009501000897010008990100080000000000
:100020000000000000000000000000009B0100082C
:100030009D010008000000009F010008A1010008C8
:10004000A3010008A3010008A3010008A301000800
:10005000A3010008A3010008A3010008A3010008F0
:10006000A3010008A3010008A3010008A3010008E0
:10007000A3010008A3010008A3010008A3010008D0
:10008000A3010008A3010008A3010008A3010008C0
:10009000A3010008A3010008A3010008A3010008B0
:1000A000A3010008A3010008A3010008A3010008A0
:1000B000A3010008A3010008A3010008A301000890
:1000C000A3010008A3010008A3010008A301000880
:1000D000A3010008A3010008A3010008A301000870
:1000E000A3010008A3010008A301000800F002F822
:1000F00000F03AF80AA090E8000C82448344AAF188
:100100000107DA4501D100F02FF8AFF2090EBAE885
:100110000F0013F0010F18BFFB1A43F0010318473B
:10012000E803000008040000103A24BF78C878C132
:10013000FAD8520724BF30C830C144BF04680C60ED
:10014000704700000023002400250026103A28BF35
:1001500078C1FBD8520728BF30C148BF0B60704739
:100160001FB51FBD10B510BD00F031F81146FFF7E7
:10017000F7FF00F0ABF900F04FF803B4FFF7F2FF20
:1001800003BC00F057F800000948804709480047C1
:10019000FEE7FEE7FEE7FEE7FEE7FEE7FEE7FEE737
:1001A000FEE7FEE704480549054A064B7047000094
:1001B000E1030008ED000008680000206806002048
:1001C000680200206802002070477047704775463B
:1001D00000F02CF8AE4605006946534620F00700B3
:1001E000854618B020B5FFF7DDFFBDE820404FF091
:1001F00000064FF000074FF000084FF0000B21F011
:100200000701AC46ACE8C009ACE8C009ACE8C009DD
:10021000ACE8C0098D46704710B50446AFF30080C6
:100220002046BDE81040FFF7A8BF00000048704717
:100230000400002001491820ABBEFEE726000200A2
:10024000704700000648806940F01000044988614A
:100250000448406840F4801002494860704700003C
:10026000001002400010014010B500F001F810BD70
:100270000CB50020019000903348006840F48030B5
:100280003149086000BF3048006800F40030009039
:100290000198401C0190009818B90198B0F5A06F22
:1002A000F1D12948006800F4003010B1012000901D
:1002B00001E0002000900098012843D12348006805
:1002C00040F01000214908600846006820F007004F
:1002D00008600846006840F0020008601A4840685C
:1002E000194948600846406848600846406840F43C
:1002F000806048600846406820F47C1048600846EA
:10030000406840F4E81048600846006840F080709B
:10031000086000BF0C48006800F000700028F9D0A9
:100320000948406820F003000749486008464068D3
:1003300040F00200486000BF0348406800F00C0035
:100340000828F9D10CBD0000001002400020024036
:100350002148006840F480301F49086000BF1E48F3
:10036000006800F400300028F9D01B48C06940F054
:1003700080501949C8611948006840F022001749A7
:10038000086015484068144948600846406840F4D1
:10039000806048600846406848600846406840F40D
:1003A000E81048600846006840F08070086000BFB0
:1003B0000948006800F000700028F9D0064840683D
:1003C00040F002000449486000BF0348406800F064
:1003D0000C000828F9D170470010024000200240AC
:1003E00010B51348006840F0010011490860084644
:1003F0004068104908400E494860084600680E49A8
:1004000008400B4908600846006820F48020086016
:100410000846406820F4FE0048604FF41F008860E2
:10042000FFF722FF4FF000600449086010BD000094
:10043000001002400000FFF8FFFFF6FE08ED00E0AC
:100440001048C06940F001000E49C8618804008D61
:1004500040F04700890408850846808D4FF6FE71FC
:1004600008434FF0804188850846008840F001002D
:10047000088000BF4FF08040008A00F00100002893
:10048000F8D070470010024000B50346002008492C
:10049000086008E04FF47A7000F00CF80448006837
:1004A000401C03490860024800689842F2D300BD2E
:1004B0000000002000214FF08042918400BF4FF0E7
:1004C0008041898C8142FAD370470000FFF740FFDA
:1004D000FFF7B6FFFFF7B6FE13E00A48006940F4E5
:1004E0000050084908614FF47A70FFF7CDFF0548C6
:1004F000006940F00050034908614FF47A70FFF73B
:10050000C3FFEAE7001001402805000800000020B2
:1005100004000000280100082C0500080400002049
:0C05200064060000440100080000000018
:04000005080000ED02
:00000001FF
