:020000040800F2
:10000000680600206D0100087501000877010008EE
:10001000790100087B0100087D0100080000000054
:100020000000000000000000000000007F01000848
:10003000810100080000000083010008850100081C
:100040008701000887010008870100088701000870
:100050008701000887010008870100088701000860
:100060008701000887010008870100088701000850
:100070008701000887010008870100088701000840
:100080008701000887010008870100088701000830
:100090008701000887010008870100088701000820
:1000A0008701000887010008870100088701000810
:1000B0008701000887010008870100088701000800
:1000C00087010008870100088701000887010008F0
:1000D00087010008870100088701000887010008E0
:1000E00087010008870100088701000800F002F876
:1000F00000F02CF80AA090E8000C82448344AAF196
:100100000107DA4501D100F021F8AFF2090EBAE893
:100110000F0013F0010F18BFFB1A43F0010318473B
:10012000D8050000E8050000002300240025002673
:10013000103A28BF78C1FBD8520728BF30C148BF4A
:100140000B6070471FB51FBD10B510BD00F031F832
:100150001146FFF7F7FF00F0A7FA00F04FF803B4DD
:10016000FFF7F2FF03BC00F057F800000948804792
:1001700009480047FEE7FEE7FEE7FEE7FEE7FEE789
:10018000FEE7FEE7FEE7FEE704480549054A064BA1
:100190007047000085050008ED0000086800002099
:1001A000680600206802002068020020704770473F
:1001B0007047754600F02CF8AE4605006946534678
:1001C00020F00700854618B020B5FFF7DDFFBDE839
:1001D00020404FF000064FF000074FF000084FF0AE
:1001E000000BAC46ACE8C009ACE8C009ACE8C009FB
:1001F000ACE8C00921F007018D46704710B50446F0
:10020000AFF300802046BDE81040FFF7A8BF000014
:10021000004870470000002001491820ABBEFEE7EF
:10022000260002007047000081B08DF803009DF8A1
:10023000030045F21041C4F200010880FFE745F2D7
:100240001440C4F2000000888007002801D4FFE7B2
:10025000F5E745F21440C4F20000008845F2184169
:10026000C4F20001098808438DF8020001B070470C
:1002700041F21C01C4F20201086840F40010086059
:1002800041F21801C4F20201086840F00800086059
:1002900040F60041C4F20101086820F07060086077
:1002A000086820F070400860086840F0405008601E
:1002B000086840F040400860086840F040700860FE
:1002C000086840F04060086045F20041C4F2000157
:1002D000088840F40040088008886FF3DF30088009
:1002E00045F20442C4F20002108840F0240010805D
:1002F00045F21C42C4F20002108840F0B4001080A5
:1003000045F22042C4F20002108840F0090010803B
:10031000088840F0010008807047000045F2004165
:10032000C4F20001088840F40070088070470000A3
:1003300081B08DF80300FFE745F21440C4F20000DD
:1003400000880006002801D4FFE7F5E79DF80300C8
:1003500045F21041C4F200010880FFE745F2144065
:10036000C4F2000000884007002801D4FFE7F5E749
:1003700001B0704745F20041C4F20001088840F422
:1003800080700880FFE745F21440C4F20000008846
:10039000C00708B9FFE7F6E77047000080B500F036
:1003A00001F880BD84B000200390029041F200016A
:1003B000C4F20201086840F480300860FFE741F2AF
:1003C0000000C4F20200006800F4003002900398BC
:1003D00001300390FFE702990020019039B9FFE74F
:1003E0000398B0F5A06018BF01200190FFE70198C5
:1003F000C0070028E3D1FFE741F20000C4F2020089
:1004000000688003002803D5FFE70120029002E086
:1004100000200290FFE70298012851D1FFE742F245
:100420000001C4F20201086840F01000086008688A
:1004300020F007000860086840F00200086041F200
:100440000401C4F2020100910868086008680860AD
:10045000086840F480600860086820F47C10086038
:10046000086840F4E810086041F20001C4F202019B
:10047000086840F080700860FFE741F20000C4F2B5
:10048000020000688001002801D4FFE7F5E741F28F
:100490000401C4F20201086820F003000860086843
:1004A00040F002000860FFE741F20400C4F20200DD
:1004B000006800F00C00082801D0FFE7F4E700E036
:1004C000FFE704B07047000081B041F20001C4F2C0
:1004D0000201086840F480300860FFE741F2000044
:1004E000C4F2020000688003002801D4FFE7F5E7AA
:1004F00041F21C01C4F20201086840F0805008601B
:1005000042F20001C4F20201086840F022000860D3
:1005100041F20401C4F20201009108680860086811
:1005200040F48060086008680860086840F4E810DB
:10053000086041F20001C4F20201086840F08070D6
:100540000860FFE741F20000C4F202000068800189
:10055000002801D4FFE7F5E741F20401C4F20201EB
:10056000086840F002000860FFE741F20400C4F2AE
:100570000200006800F00C00082801D0FFE7F4E753
:1005800001B0704780B541F20002C4F20202106867
:1005900040F00100106041F20401C4F20201086859
:1005A0000023CFF6FF031840086010684FF6FF7372
:1005B000CFF6F66318401060106820F480201060B9
:1005C000086820F4FE00086041F20801C4F202014C
:1005D0004FF41F000860FFF7E1FE4EF60851CEF21F
:1005E00000014FF00060086080BD000041F21C0176
:1005F000C4F20201086840F0010008602821C4F23A
:100600000001088840F0470008802C21C4F2000156
:1006100008884FF6FE72104308804FF0804108882A
:1006200040F001000880FFE71020C4F200000088BD
:10063000C00708B9FFE7F7E77047000080B582B050
:10064000019040F26001C2F2000100200860FFE763
:1006500040F26000C2F200000068019988420DD2A9
:10066000FFE74FF47A7000F00BF8FFE740F260010B
:10067000C2F20001086801300860E9E702B080BDFD
:1006800081B000902421C4F2000100200880FFE71F
:100690002420C4F2000000880099884201D2FFE7BC
:1006A000F6E701B07047000080B582B000200190ED
:1006B000FFF70AFFFFF79AFFFFF7DAFDFFE7FFF703
:1006C00059FE4020FFF7B0FD00200090FFE70098A2
:1006D00002280DDCFFE79DF80000FFF729FE4FF42C
:1006E0007A70FFF7ABFFFFE7009801300090EEE76C
:1006F000FFF714FEE3E700000807000800000020F1
:08070000680600002801000852
:04000005080000ED02
:00000001FF
