:020000040800F2
:10000000780600206D0100087501000877010008DE
:10001000790100087B0100087D0100080000000054
:100020000000000000000000000000007F01000848
:10003000810100080000000083010008850100081C
:100040008701000887010008870100088701000870
:100050008701000887010008870100088701000860
:100060008701000887010008870100088701000850
:100070008701000887010008870100088701000840
:100080008701000887010008870100088701000830
:100090008701000887010008870100088701000820
:1000A0008701000887010008870100088701000810
:1000B0008701000887010008870100088701000800
:1000C00087010008870100088701000887010008F0
:1000D00087010008870100088701000887010008E0
:1000E00087010008870100088701000800F002F876
:1000F00000F02CF80AA090E8000C82448344AAF196
:100100000107DA4501D100F021F8AFF2090EBAE893
:100110000F0013F0010F18BFFB1A43F0010318473B
:100120004C0C00005C0C000000230024002500267D
:10013000103A28BF78C1FBD8520728BF30C148BF4A
:100140000B6070471FB51FBD10B510BD00F031F832
:100150001146FFF7F7FF00F0FDFB00F04FF803B486
:10016000FFF7F2FF03BC00F057F800000948804792
:1001700009480047FEE7FEE7FEE7FEE7FEE7FEE789
:10018000FEE7FEE7FEE7FEE704480549054A064BA1
:10019000704700009D080008ED000008780000206E
:1001A000780600207802002078020020704770470F
:1001B0007047754600F02CF8AE4605006946534678
:1001C00020F00700854618B020B5FFF7DDFFBDE839
:1001D00020404FF000064FF000074FF000084FF0AE
:1001E000000BAC46ACE8C009ACE8C009ACE8C009FB
:1001F000ACE8C00921F007018D46704710B50446F0
:10020000AFF300802046BDE81040FFF7A8BF000014
:10021000004870470000002001491820ABBEFEE7EF
:10022000260002007047000081B08DF803009DF8A1
:10023000030045F21041C4F200010880FFE745F2D7
:100240001440C4F2000000888007002801D4FFE7B2
:10025000F5E745F21440C4F20000008845F2184169
:10026000C4F20001098808438DF8020001B070470C
:1002700041F21C01C4F20201086840F40010086059
:1002800041F21801C4F20201086840F00800086059
:1002900040F60041C4F20101086820F07060086077
:1002A000086820F070400860086840F0405008601E
:1002B000086840F040400860086840F040700860FE
:1002C000086840F04060086045F20041C4F2000157
:1002D000088840F40040088008886FF3DF30088009
:1002E00045F20442C4F20002108840F0240010805D
:1002F00045F21C42C4F20002108840F0B4001080A5
:1003000045F22042C4F20002108840F0090010803B
:10031000088840F0010008807047000085B08DF823
:10032000130003918DF80B209DF80B0001909DF8B0
:100330000B00012842D1FFE79DF8130045F2104160
:10034000C4F200010880FFE745F21440C4F2000047
:1003500000888007002801D4FFE7F5E745F2004157
:10036000C4F20001088820F48060088045F214403F
:10037000C4F20000008845F21842C4F2000212885C
:1003800010438DF80300088840F400700880FFE7F0
:1003900045F21440C4F2000000884006002801D451
:1003A000FFE7F5E745F21040C4F20000008803992A
:1003B0009DF80B20019BD21A88546BE09DF8130026
:1003C00045F21041C4F200010880FFE745F21440F5
:1003D000C4F2000000888007002801D4FFE7F5E799
:1003E00045F21440C4F20000008845F21841C4F2FE
:1003F0000001098808438DF80200FFE701980328EF
:1004000022DBFFE7FFE745F21440C4F2000000885A
:100410004006002801D4FFE7F5E745F21040C4F29A
:100420000000008803999DF80B20019BD21A885484
:1004300045F20041C4F20001088840F48060088061
:10044000019801380190D9E745F20041C4F200015A
:10045000088820F480600880088840F400700880D4
:10046000019801380190FFE745F21440C4F2000002
:1004700000884006002801D4FFE7F5E745F2104068
:10048000C4F20000008803999DF80B20019BD21A4A
:100490008854FFE705B0704745F20041C4F20001FF
:1004A000088840F4007008807047000081B08DF823
:1004B0000300FFE745F21440C4F200000088000684
:1004C000002801D4FFE7F5E79DF8030045F210414D
:1004D000C4F200010880FFE745F21440C4F20000B6
:1004E00000884007002801D4FFE7F5E701B0704716
:1004F00045F20041C4F20001088840F480600880A1
:10050000088840F480700880FFE745F21440C4F288
:1005100000000088C00708B9FFE7F6E77047000051
:1005200080B586B0D0203B210DF11202062300F0E9
:1005300085F89DF812109DF8130040EA012140F261
:100540006000C2F2000001809DF814209DF8151093
:1005500041EA022140F26202C2F2000200921180DE
:100560009DF816209DF8171041EA022140F264021E
:10057000C2F2000201921180008800F087FB002285
:1005800002920023C4F2B003039300F025FA00F0B6
:10059000F1F90146009840F26802C2F200021160CF
:1005A000008800F073FB029A039B00F015FA00F03C
:1005B000E1F90146019840F26C02C2F200021160BA
:1005C000008800F063FB029A039B00F005FA00F03C
:1005D000D1F940F27001C2F20001086006B080BD9E
:1005E00080B582B000208DF80700D02075210DF174
:1005F0000702012300F022F89DF8070068281BD1AC
:10060000FFE7D02000906B21012200F039F800981C
:100610001921072200F034F800981A21032200F073
:100620002FF800981C21102200F02AF800981B21B6
:10063000082200F025F8FFE702B080BD80B584B045
:100640008DF80F008DF80E1002928DF80730FFF72D
:100650004FFF9DF80F00FFF7E7FD9DF80E00FFF735
:1006600025FFFFF745FF9DF80F00013002999DF827
:100670000720C0B2FFF752FEFFF70EFF04B080BDA7
:1006800080B582B08DF807008DF806108DF8052032
:10069000FFF72EFF9DF80700FFF7C6FD9DF8060047
:1006A000FFF704FF9DF80500FFF700FFFFF7F4FEDA
:1006B00002B080BD80B500F001F880BD84B000209C
:1006C0000390029041F20001C4F20201086840F474
:1006D00080300860FFE741F20000C4F202000068C9
:1006E00000F400300290039801300390FFE7029974
:1006F0000020019039B9FFE70398B0F5A06018BF5A
:1007000001200190FFE70198C0070028E3D1FFE72F
:1007100041F20000C4F2020000688003002803D503
:10072000FFE70120029002E000200290FFE702981C
:10073000012851D1FFE742F20001C4F2020108682A
:1007400040F010000860086820F0070008600868A2
:1007500040F00200086041F20401C4F2020100917D
:100760000868086008680860086840F480600860ED
:10077000086820F47C100860086840F4E8100860FD
:1007800041F20001C4F20201086840F08070086084
:10079000FFE741F20000C4F2020000688001002877
:1007A00001D4FFE7F5E741F20401C4F20201086851
:1007B00020F003000860086840F002000860FFE7CE
:1007C00041F20400C4F20200006800F00C000828A6
:1007D00001D0FFE7F4E700E0FFE704B07047000056
:1007E00081B041F20001C4F20201086840F4803097
:1007F0000860FFE741F20000C4F2020000688003D5
:10080000002801D4FFE7F5E741F21C01C4F2020120
:10081000086840F08050086042F20001C4F2020112
:10082000086840F02200086041F20401C4F20201AD
:10083000009108680860086840F4806008600868F3
:100840000860086840F4E810086041F20001C4F252
:100850000201086840F080700860FFE741F2000084
:10086000C4F2020000688001002801D4FFE7F5E728
:1008700041F20401C4F20201086840F0020008607D
:10088000FFE741F20400C4F20200006800F00C002F
:10089000082801D0FFE7F4E701B0704780B541F2C6
:1008A0000002C4F20202106840F00100106041F240
:1008B0000401C4F2020108680023CFF6FF031840C8
:1008C000086010684FF6FF73CFF6F66318401060AB
:1008D000106820F480201060086820F4FE00086092
:1008E00041F20801C4F202014FF41F000860FFF753
:1008F000E1FE4EF60851CEF200014FF000600860B4
:1009000080BD000041F21C01C4F20201086840F001
:10091000010008602821C4F20001088840F0470067
:1009200008802C21C4F2000108884FF6FE721043A3
:1009300008804FF08041088840F001000880FFE700
:100940001020C4F200000088C00708B9FFE7F7E7ED
:100950007047000080B582B000200190FFF740FF93
:10096000FFF7D0FFFFF784FCFFF73AFEFFE7FFF742
:10097000D7FDFCE721F0004201F00043A2F16052F4
:10098000B2F5801F28BFD2F17F6C0BD95FEA001C43
:1009900043EAC20242EB507018BF704728BF20F0F4
:1009A00001007047B2F5801FBCBF184670474FEA80
:1009B000410C1CF5001F02D2084600F0D2B970B5F8
:1009C00000F07BF900000089FFF7F6BF4FF0004010
:1009D000A0F58000704700002DE9C04130B4DFF879
:1009E000A4C23CEA111418BF3CEA131400F0ED80D5
:1009F0001CEA111481EA030544EAD57418BF1CEA05
:100A0000131500F0C880A4EB050404F17F7404F50D
:100A100000344FF0004545EAC12145EAC32341EACD
:100A2000505143EA52534FEAC0204FEAC222994242
:100A300008BF904200F09D804FEA13650FF2441604
:100A4000765D4FEA134506FB05F7C7F1807706FB95
:100A500007F74FEAD737A7FB03687642A7FB06CE16
:100A6000C8F5803838BFA8F1010807FB08E6A6FBE7
:100A7000028C4FF0000EE6FB03CEDCF1000CCEF151
:100A8000004E38BFAEF1010EA6FB0C584FF0000728
:100A9000E6FB0E87A1FB08C6A0FB07CE16EB0E06F1
:100AA0004FF0000545F10005E1FB076515F1E04E4B
:100AB0007EBFA4F580345FEA46066D4116F18007DB
:100AC00045F100054FEA172747EA05674FEA152564
:100AD0004FEA0666A6F1DE46B6F1805F20D93846B9
:100AE00005EBC47124F0010C01EB0C11BCF1FE6F9D
:100AF00002D8F0BCBDE8008124425CBF01F5801E35
:100B00009EEAC47F02D4F0BCBDE80081244200F11B
:100B10003980A1F1C041F0BCBDE8004100F01BB933
:100B20004FEAD02040EA41504FEAD1214FEAD22289
:100B300042EA43524FEAD323A7FB028607FB036630
:100B400005FB02661EEA0E0F58BFA6EB0056B6EB79
:100B500000564FEA520E4EEAC37E18EB0E0E56EBCD
:100B6000530EBCD518EB02085E417F1C55F1000501
:100B7000B5E74FF480154FF000074FF000064FF037
:100B80000008ACE701F1C04101F000414FF0000066
:100B9000F0BCBDE800810CEA131511EA0C1F00D06F
:100BA0000CE013EA0C1F00F026804FF0000081EAF1
:100BB000030101F00041F0BCBDE80081F0BCBDE8DC
:100BC000004181EA030100F0C6B8F0BCBDE8004175
:100BD00070B500F072F800BF097EFC3E00F007B867
:100BE0004FF0000081EA030101F00041704781EA03
:100BF000030100F0B0B8F0BCBDE8004122494FF05D
:100C000000007047FFFDFBF9F7F5F4F2F0EEEDEBB5
:100C1000E9E8E6E4E3E1E0DEDDDBDAD8D7D5D4D3FA
:100C2000D1D0CFCDCCCBCAC8C7C6C5C4C2C1C0BF46
:100C3000BEBDBCBBBAB9B8B7B6B5B4B3B2B1B0AF4C
:100C4000AEADACABAAA9A8A8A7A6A5A4A3A3A2A130
:100C5000A09F9F9E9D9C9C9B9A99999897979695EB
:100C600095949393929191908F8F8E8E8D8C8C8B87
:100C70008B8A89898888878786858584848383820F
:100C8000828181800000FF070000F87F10F00042A1
:100C900048BF4042B0FA80F310FA03F10AD0C3F122
:100CA0001D0303F5806302EB03524FEA415002EB50
:100CB000D12170474FF0000070470EF1020E2EF068
:100CC000030E5EF8046B364205D4012A43EB03059C
:100CD00015F5001F12D8012841EB010C1CF5001F6F
:100CE0000CD80ED14FEAD17C0CEB4C0C0CF1020C61
:100CF00015F5001F08BF4CEBD37C04E04FF0080C47
:100D000001E04FEAD37C0CEB4C0526FA05F606F021
:100D10000706B6F1040C06D20EEB860CBDE8704057
:100D20004CF0010C6047DFE80CF0090B02024FF0B9
:100D30000041A1F500214FF0000070BD194610469A
:100D4000012851EB010418BFD4F5001484BF002022
:100D500001F0004170BD0808A0F500114FEA310113
:100D60007047FF2141EAD050C00570477C0D000854
:0C0D7000000000207806000028010008A8
:04000005080000ED02
:00000001FF
