:020000040800F2
:10000000C806002049070008E5040008E7040008C6
:10001000E9040008EB040008ED04000800000000FB
:10002000000000000000000000000000EF040008D5
:10003000F104000800000000F3040008F5040008C3
:1000400063070008630700086307000863070008E8
:1000500063070008630700086307000863070008D8
:1000600063070008630700086307000863070008C8
:1000700063070008630700086307000863070008B8
:1000800063070008630700086307000863070008A8
:100090001D050008630700086307000863070008E0
:1000A0006307000863070008630700086307000888
:1000B0006307000863070008630700086307000878
:1000C0006307000863070008630700086307000868
:1000D00063070008F70400086307000863070008C7
:1000E0006307000863070008630700086307000848
:1000F0006307000863070008630700086307000838
:100100006307000863070008630700086307000827
:100110006307000863070008630700086307000817
:100120006307000863070008630700086307000807
:1001300063070008630700086307000863070008F7
:1001400085050008630700086307000863070008C7
:1001500063070008630700086307000863070008D7
:1001600063070008630700086307000863070008C7
:1001700063070008630700086307000863070008B7
:10018000630700086307000800F002F800F041F878
:100190000AA090E8000C82448344AAF10107DA45E2
:1001A00001D100F036F8AFF2090EBAE80F0013F0F3
:1001B000010F18BFFB1A43F0010318472C1A000067
:1001C0004C1A0000103A24BF78C878C1FAD85207F8
:1001D00024BF30C830C144BF04680C6070470000C1
:1001E0000023002400250026103A28BF78C1FBD840
:1001F000520728BF30C148BF0B607047632901F028
:100200005C84002070471FB501F0C4FC1FBD10B511
:1002100010BD01F08DFC1146FFF7F5FF00F0DEF890
:1002200001F0ABFC03B4FFF7F2FF03BC00F077FA78
:100230009B490020401C8842FCD37047F0B5994A86
:1002400085B03124147032255570332696703427CA
:10025000D7704FF0350C82F804C04FF0360E82F89C
:1002600005E037239371D171009000208DF80900CB
:100270008DF8080008208DF80C508DF810E08DF8EE
:100280000A008DF80D608DF811308DF80E708DF824
:1002900012108DF80B408DF80FC06946824801F0AE
:1002A00087F805B0F0BD2DE9FC410121084600F0BA
:1002B000DBFC01214F06384600F0F4FCDFF8EC814E
:1002C00009220B21404600F08BFB09220C214046FD
:1002D00000F086FB02268DF804604FF4C0508DF8C4
:1002E0000560002400908DF8064001258DF8075028
:1002F0006946404600F000FB0121384600F0D2FC80
:100300000121384600F0CEFC674F384600F00EFF62
:10031000674800F0F3FF664805218471C4710472D8
:1003200044728472C4728470C47001710721417177
:1003300006800146384600F00CFF5D480C308472A0
:10034000C4720573048044808480C4800481457332
:1003500000F073FF564840F221311C300122C0E901
:1003600000154472047285720221384601F0A0F92A
:10037000BDE8FC8108B514208DF8000000208DF840
:1003800001008DF8020001208DF80300684600F09E
:1003900000FA08BD7CB50121022000F065FC0126B1
:1003A0008DF8046000240F208DF80640032500908E
:1003B0008DF805508DF8074069463E4800F09CFADC
:1003C0000121084600F050FC8DF8044000958DF89E
:1003D00007606946354800F08FFA7CBDFFF7DAFF09
:1003E00000F03AF9FFF7C6FFFFF75DFF324801F072
:1003F000EDFA32A001F0EAFA34A001F0E7FA0227A0
:10040000DFF8A890274C2B4D4FF0010800264FF243
:10041000010A207A012800D12672E079012803D050
:10042000022804D028B105E084F80A8002E0A7720F
:1004300000E0A6720221484600F0AFFA00B96772E8
:100440000121484600F0A9FA08B984F80980617AC8
:100450005046FFF7F3FE6672A07A012807D101210A
:10046000284600F0AEFA0221284600F0ACFAA07A45
:10047000022807D10121284600F0A5FA02212846CA
:1004800000F09FFAA07A38B90121284600F09BFAC3
:100490000221284600F097FAFFF7CAFEB9E70000EC
:1004A000FFFF5F00020000200064004000000240E7
:1004B0003800002000040240A01B000843414E2DDC
:1004C0004275732054657374200D0A0043414E2D0C
:1004D000427573205370656564203130306B487A03
:1004E000200D0A007047FEE7FEE7FEE7FEE77047D3
:1004F00070477047704710B53C4C40F2255120467C
:1005000000F0E3FD002808D0204600F047FD01463A
:10051000BDE8104036A001F059BA10BD10B5424CEC
:1005200086B06A460021204600F0DFFF3F4A00996E
:1005300011803F499DF80B0008703E499DF80C0062
:1005400008703D499DF80D0008703C499DF80E006B
:1005500008703B499DF80F0008703A499DF810005B
:10056000087039499DF81100087038499DF812004B
:1005700008700221204601F024F935490120087055
:1005800006B010BD10B5334C86B06A460021204637
:1005900000F0ABFF254A0099118025499DF80B001A
:1005A000087024499DF80C00087023499DF80D003F
:1005B000087022499DF80E00087021499DF80F002F
:1005C000087020499DF8100008701F499DF811001F
:1005D00008701E499DF8120008700221204601F0A3
:1005E000F0F81B4901200870CAE7000000480040ED
:1005F0000A0D5553415254204879706572746572E2
:100600006D696E616C20496E746572727570747379
:100610002052656365697665206120776F72643A60
:100620002025630A0D000000006400400000002047
:10063000020000200300002004000020050000202C
:10064000060000200700002008000020090000200C
:100650000A0000200068004070B586B00121042027
:1006600000F002FB0121042000F0FEFA01218804C1
:1006700000F018FB324E07220A21304600F0B0F994
:1006800007220B21304600F0ABF930150090022014
:100690008DF8040000248DF806408DF80500012532
:1006A0008DF807506946304600F026F9E8020090C0
:1006B0008DF806508DF807406946304600F01CF969
:1006C0004FF4E130ADF80C400290ADF80E40ADF8BB
:1006D0001040ADF814400C201A4CADF8120002A9DD
:1006E000204600F0C0FB012240F22551204600F0D8
:1006F000CAFC0121204600F027FC06B070BD08B5F9
:1007000027208DF8000001208DF8010000218DF8D0
:1007100002108DF80300684600F03BF808BD7047F2
:1007200070B5084D0446C1B2284600F033FC4021A4
:10073000284600F0C0FC0028F9D0204670BD00001B
:100740000008024000480040094880470948004727
:10075000FEE7FEE7FEE7FEE7FEE7FEE7FEE7FEE771
:10076000FEE7FEE704480549054A064B70470000CE
:10077000EF18000889010008C8000020C806002002
:10078000C8020020C8020020284908432849086000
:10079000704730B50F23C27801780125FAB1244A99
:1007A000126801F1E02102F4E062C2F5E062C2F3F6
:1007B0000722C2F10404D3404278A24084781C404E
:1007C0001443220181F80024007800F01F018D40BD
:1007D0004009800000F1E020C0F8005130BD01F078
:1007E0001F0085404809800000F1E020C0F88051DA
:1007F00030BD104A114001430D48001F0160704791
:100800000B4A121D0029116801D0014300E0814309
:10081000116070474FF0E0210428086903D020F0F0
:1008200004000861704740F00400FAE70000FA0590
:100830000CED00E080FFFF1F714910B5884206D122
:100840000121084600F042FA002101204FE06D49E5
:10085000884206D10121022000F038FA002102204E
:1008600045E06949884206D10121042000F02EFAB2
:10087000002104203BE06549884206D1012108207F
:1008800000F024FA0021082031E06149884206D1B5
:100890000121102000F01AFA0021102027E05D4904
:1008A000884206D10121202000F010FA00212020EA
:1008B0001DE05949884206D10121402000F006FA86
:1008C0000021402013E05549884206D101218020B3
:1008D00000F0FCF90021802009E0514988420AD14A
:1008E00084150121204600F0F1F900212046BDE8E1
:1008F000104000F0EBB910BDF0B5002201274FF019
:10090000030C0B6807FA02F52B40AB422CD10668AA
:1009100053000CFA03F4A64306600E79D0F800E009
:100920009E4046EA0E0606600E79012E01D0022E88
:1009300012D18668A64386604E79D0F808E09E40C2
:1009400046EA0E0686604668AE43466045688E7984
:100950009640B6B235434560C568A543C560CC79BD
:100960009C40C3681C43C460521C102AC9D3F0BD0C
:100970004FF6FF7101600021017141718171C171F8
:10098000704708B541F480320092C261C16100999C
:10099000C161C169C069009008BD024600201269AA
:1009A0000A4200D001207047006980B270470246B9
:1009B000002052690A4200D001207047406980B28D
:1009C000704701837047418370470AB101837047C4
:1009D000418370474161704742694A4042617047B4
:1009E0004B07DB0E9A40C90810B500EB8100016A85
:1009F0000F249C40A1430162016A1143016210BDB2
:100A0000000002400004024000080240000C0240C6
:100A1000001002400014024000180240001C024076
:100A200000200240EA48016841F001010160E84A03
:100A30000021083211600268E64B1A400260031D73
:100A4000E54A1A60026822F480220260E0480C3015
:100A500001607047DE490022891C0A7008707047E7
:100A600002460020510901290CD002290CD0D84996
:100A70007431096802F01F02012393400B4200D039
:100A800001207047D249F4E7D1497031F1E718B538
:100A900000204FF4A06400903120FFF7E1FF00999F
:100AA000491C0091A14201D00028F5D03120FFF768
:100AB000D7FF002800D0012018BDC54A116821F0D9
:100AC000F80141EAC00010607047C44908607047EF
:100AD000BF49002270310A700A70012802D0042830
:100AE00001D1052008707047BD490860704741EA90
:100AF00082115A0810B5BB4B029C03EB0242114312
:100B0000014341EA0460B249091D086010BDB349C0
:100B100008667047800140EA0170AD498431086081
:100B20007047AE4988667047AC49C8647047A84BA7
:100B300008331A68084322F0EC62104318607047CB
:100B4000A34B08331A68084322F078421043186018
:100B500070479F4A0832116821F003010143116078
:100B600070479B480830006800F00C007047984AB6
:100B70000832116821F0F001014311607047944A76
:100B80000832116821F4E051014311607047904A26
:100B90000832116821F4604141EAC00010607047DA
:100BA00070B58B4B083319688F4C11F00C0104D0D1
:100BB0006610042903D0082903D004601BE00660F6
:100BC00019E0834A121D1168C1F38055116801F0C4
:100BD0003F0115B1B6FBF1F101E0B4FBF1F114688E
:100BE0001268C4F388146143C2F30142521C5200DC
:100BF000B1FBF2F1016019680F2202EA11117B4A80
:100C0000545C0168E14041601C68072505EA9424B2
:100C1000145D21FA04F484601B6805EA5333D25C46
:100C2000D140C16070BDC0F30121032908D1684BD8
:100C3000083319686E4A21F4F81102400A431A6019
:100C4000634970310A68C0F30B0002430A607047C1
:100C5000634944390860704761494039086070470A
:100C60005E49C1F85C017047594A30320029116869
:100C700001D0014300E0814311607047544A34328F
:100C80000029116801D0014300E0814311607047E1
:100C90004F4A38320029116801D0014300E08143F6
:100CA000116070474A4A40320029116801D001435F
:100CB00000E0814311607047454A443200291168C1
:100CC00001D0014300E0814311607047404A103277
:100CD0000029116801D0014300E081431160704791
:100CE0003B4A14320029116801D0014300E08143DE
:100CF00011607047364A18320029116801D001434B
:100D000000E0814311607047314A203200291168A8
:100D100001D0014300E08143116070472C4A243226
:100D20000029116801D0014300E081431160704740
:100D3000274A50320029116801D0014300E0814365
:100D400011607047224A54320029116801D00143D2
:100D500000E08143116070471D4A58320029116834
:100D600001D0014300E0814311607047184A6032AE
:100D70000029116801D0014300E0814311607047F0
:100D8000134A64320029116801D0014300E0814315
:100D9000116070470E4A0D320029117801D00143CD
:100DA00000E081431170704709487430016841F0D8
:100DB0008071016070470146054A00200C321268BC
:100DC0000A4200D00120704701490E310870704777
:100DD00000380240FFFFF6FE1030002400004742BA
:100DE000800E47420000FFFF0024F40014000020A2
:100DF000FFFCFF0FC74910B5884206D10121102022
:100E0000FFF78CFF0021102028E0C349884202D15F
:100E100001214C0410E0C149884202D101218C0417
:100E20000AE0BF49884202D10121CC0404E0BD4957
:100E300088420AD101210C052046FFF765FF2046B4
:100E4000BDE810400021FFF75FBFB749884209D1D4
:100E500001212020FFF762FF00212020BDE8104083
:100E6000FFF75CBF10BD7FB50446008A0D46C988F8
:100E700020F4405001432182A08941F20C61884353
:100E8000A9882A8911436A8902431143A181A08A52
:100E900020F44071A8890843A0826846FFF780FECD
:100EA0009C48844202D0A048844201D1039800E0CB
:100EB0000298A189090400EBC00101EB0010296828
:100EC00001D5490000E08900B0FBF1F06422B0FBDD
:100ED000F2F109010B096FF018056B4300EB830079
:100EE000A3891D044FF0320306D503EBC000B0FB0D
:100EF000F2F000F0070005E003EB0010B0FBF2F0A9
:100F000000F00F00084320817FBD4FF416510160AF
:100F100000218180C18001810C2242818181704742
:100F200010B5028A4C8822F470630A8822438C88A8
:100F3000C9880C4322431A43028210BD002101805C
:100F400041808180C18070470029818902D041F4AD
:100F5000005101E021F4005181817047028B02F4BD
:100F60007F420283028B0A430283704700298189F2
:100F700002D041F4004101E0C1F30E0181817047CC
:100F80000029818A02D041F4006101E021F400616E
:100F900081827047C1F30801818070478088C0F367
:100FA00008007047028A22F00F020282028A0A4376
:100FB000028270470029818902D041F0020101E0DC
:100FC00021F0020181817047828922F400628281CE
:100FD00082890A4382817047028A22F020020282BB
:100FE000028A0A43028270470029018A02D041F432
:100FF000804101E021F4804101827047818941F004
:101000000101818170470029818A02D041F00801E5
:1010100001E021F0080181827047028BD2B2028385
:10102000028B42EA0121018370470029818A02D0A4
:1010300041F0200101E021F0200181827047002968
:10104000818A02D041F0100101E021F0100181827B
:101050007047828A22F004028282828A0A43828254
:1010600070470029818A02D041F0020101E021F09D
:10107000020181827047002A828A01D00A4300E07F
:101080008A438282704710B5C1F3421301F01F04F6
:101090000121A140012B07D0022B07D01430002AD8
:1010A000026805D00A4304E00C30F8E71030F6E798
:1010B0008A43026010BD0246002012880A4200D016
:1010C00001207047C9430180704770B501F01F05CA
:1010D00001260024C1F3421306FA05F2012B0FD0BA
:1010E000022B0FD0838A4FEA11210088134206FA9F
:1010F00001F600EA060001D000B10124204670BDCF
:101100008389F0E7038AEEE70A0A01219140C94387
:10111000018070470010014000440040004800403A
:10112000004C00400050004000140140FE4910B542
:1011300088424FF0010101D14C0601E04FF080647C
:101140002046FFF7E1FD2046BDE810400021FFF7F3
:10115000DBBD10B50368002223F0020303600368BF
:1011600043F0010303604FF6FF7300E0521C446834
:10117000E40701D19A42F9D14268D2073ED08A7978
:10118000012A02683CD022F080020260CA79012A5A
:10119000026838D022F0400202600A7A012A02680E
:1011A00034D022F0200202604A7A012A026830D04C
:1011B00022F0100202608A7A012A02682CD022F002
:1011C00008020260CA7A012A026828D022F00402CA
:1011D00002608A78CC78920742EA04620C7942EA8B
:1011E00004424C79098842EA0452491E0A43C2610A
:1011F000016821F001010160002114E0002010BD10
:1012000042F08002C1E742F04002C5E742F020020E
:10121000C9E742F01002CDE742F00802D1E742F000
:101220000402D5E7491C4268D20701D09942F9D19E
:101230004068C007E2D1012010BDF0B5827ABB4DF5
:10124000012191402A6842F001022A60B74E1C3603
:1012500032688A433260B54A047BB54B0C32A4B97C
:1012600014688C4314604488C78844EA0744877A2A
:1012700003EBC707C7F840460488878844EA074459
:10128000877A03EBC707C7F84446047B012C12D1C9
:1012900014680C431460847A026803EBC4044FEAB8
:1012A0003242C4F84026847A426803EBC4034FEA12
:1012B0003242C3F844269D4AC37A121D002B13689C
:1012C00006D00B431360994A0389143213B104E02A
:1012D0008B43F7E713688B4313600389012B02D11B
:1012E00013680B431360407B012802D13068084328
:1012F0003060286820F001002860F0BD0021817175
:10130000C171017241728172C1728170C170032119
:1013100001710221417101210180704783490A68EE
:1013200042F001020A600A6843F60E739A430A60AB
:101330000A6842EA00200860086820F0010008609E
:1013400070470029016802D041F4803101E021F4A6
:101350008031016070470029016813D041F080019D
:101360000160D0F8841141F48071C0F88411D0F884
:10137000941141F48071C0F89411D0F8A41141F493
:10138000807112E021F080010160D0F8841121F415
:101390008071C0F88411D0F8941121F48071C0F8E4
:1013A0009411D0F8A41121F48071C0F8A4117047F1
:1013B00030B50246002093685B0108D490680001B4
:1013C00001D5012003E09068C00044D5022002EB63
:1013D0000012D2F8803103F00103C2F880310B7A99
:1013E000C3B3D2F880414D681C434B7A43EAC5032E
:1013F0001C43C2F880418B7A03F00F038B72D2F842
:10140000843123F00F03C2F88431D2F884318C7A0E
:101410002343C2F88431CB7A8C7B0D7B43EA04638F
:101420004C7B240444EA05242343C2F88831CB7B57
:101430008C7C43EA04634C7C097C240444EA01214B
:101440000B43C2F88C31D2F8801141F00101C2F88F
:10145000801130BD01E00420FBE7D2F880314C7AE6
:1014600023430C8843EA4453C2F88031C3E7002287
:1014700021B1012905D0022906D112E082682D4848
:1014800001E082682C4802402C49501A8A4214D04C
:101490000ADCA2B16FF0806010180FD002280CD1C6
:1014A0000FE082682648EEE7B0F5007F09D02549B5
:1014B000401803D0B0F5003F03D000207047022051
:1014C00070470120704741B101290AD0022903D198
:1014D000816841F4000181607047816841F08001BA
:1014E000F9E7816841F40041F5E710B500EB01131D
:1014F000D3F8B04114F004041472D3F8B04144D0CE
:10150000E4085460D3F8B04104F002045472D3F8F4
:10151000B44104F00F049472D3F8B441240AD47493
:10152000D3F8B841D4720FE0006400400066004078
:1015300000600040030000040003000800010008F0
:10154000000003100001FFF7D3F8B841240A147318
:10155000D3F8B841240C5473D3F8B841240E9473D3
:10156000D3F8BC41D473D3F8BC41240A1474D3F823
:10157000BC41240C5474D3F8BC311B0E937439B1A4
:10158000016941F02001016110BD640D1460B9E7EB
:10159000C16841F02001C16010BD21B1016941F075
:1015A000200101617047C16841F02001C1607047AE
:1015B0000246002029B1012902D1106900F0030080
:1015C0007047D068FAE700234FF6FF7221B1012976
:1015D00017D0022924D03AE0016821F0020141F03D
:1015E0000101016000E0521E416801F00301012980
:1015F00001D0002AF7D1406800F00300012823D170
:1016000024E0016821F00301016000E0521E4168FE
:10161000890701D0002AF9D14068800714D115E06C
:10162000016821F0010141F00201016000E0521E59
:10163000416801F00301022901D0002AF7D1406876
:1016400000F00300022801D0002300E00123184627
:1016500070470268002122F0010242F0020202609B
:10166000406800F00300022800D1012108467047BD
:1016700002684FF6FF71002322F00202026000E0D0
:10168000491E4268920701D50029F9D140688007B8
:1016900000D40123184670478069C0F3021000018E
:1016A00070478069000E70478069C0F3074070473B
:1016B000002A426901D00A4300E08A434261704730
:1016C0000246002011F4700F03D0926904E001205B
:1016D0007047CB0104D552680A401103F7D1704717
:1016E0000B0101D59268F7E78B0101D5D268F3E7CA
:1016F0001269F1E7534A914202D10021816170479A
:10170000C1F313028B0101D5C26070474B0101D5B3
:1017100002617047090101D58260704742607047DD
:101720000246002053690B424AD0B1F5807F3BD07E
:1017300013DC08292ED007DC012926D0022927D066
:1017400004293DD1D0682BE0102925D0202926D0AE
:10175000402935D11069102130E0B1F5004F2BD070
:101760000BDCB1F5007F22D0B1F5806F22D0B1F54E
:10177000006F25D19069702120E0B1F5803F11D034
:10178000B1F5003F1CD15068E5E790682E4915E09F
:10179000D06802E0D068DEE7106903210EE010692E
:1017A00008210BE05068FBE79069012106E0906991
:1017B000022103E0906900E05068042100F03BB88A
:1017C000704730B5082310240422B1F5007F1DD0E6
:1017D00010DC202929D007DC012921D0042922D0BE
:1017E000082900D1C46034E6402920D0B1F5807FBB
:1017F000F9D10BE00025B1F5004F06D008DCB1F5BA
:10180000806F03D0B1F5006FEDD18561426020E6B5
:10181000B1F5803F0DD0B1F5003FE4D1446018E64A
:101820000949816015E6C36013E6036111E60461AE
:101830000FE643600DE6024600200A4200D0012078
:10184000704700007000F030010101000CB500226B
:10185000544900920192086840F4803008604FF4C7
:10186000A063086800F4003001900098401C0090CC
:10187000019810B900989842F3D10868800334D5D4
:101880000120019047484030026842F080520260D7
:101890004548026842F480420260424808300268CB
:1018A0000260026842F400420260026842F4A05200
:1018B0000260031F3D4A1A600A6842F080720A60A3
:1018C0000A689201FCD53A4940F205620A60016853
:1018D00021F003010160016841F00201016001682B
:1018E000C1F381010229FAD10CBD01920CBD31482E
:1018F00010B5016841F4700101602A48016841F0A7
:1019000001010160274A00210832116002682A4B58
:101910001A400260031D294A1A60026822F48022DC
:10192000026020480C300160FFF790FF21494FF022
:1019300000608039086010BD70B51A4D0835286800
:101940001F4B204910F00C0004D05E10042803D077
:10195000082803D00B601BE00E6019E0114A121D2D
:101960001068C0F38054106800F03F0014B1B6FB5B
:10197000F0F001E0B3FBF0F013681268C3F38813D2
:101980005843C2F30142521C5200B0FBF2F008600F
:1019900028680C4AC0F30310121D105C0A68C2408C
:1019A0000A6070BD003802400070004008544007D3
:1019B000003C024088ED00E0FFFFF6FE10300024FE
:1019C0000024F40024000020704700000FB40449F4
:1019D00010B503AA029800F07DF810BC5DF814FB66
:1019E000100000202DE9F0410E4604460020206240
:1019F0002046E168884730B3252805D0D4E9012185
:101A00009047206A401CF2E7E1682046002788479B
:101A1000050018D0A5F14100192802D820354FF44F
:101A200000673246294620462760FEF7E7FB40B1B3
:101A3000012804D0F61D26F007060836D8E7361D23
:101A4000D6E72846DAE7206ABDE8F08170B50C4693
:101A50000546012A05D02878800600D5EA690023CA
:101A600002E0012305E05B1C934202D2E05C002807
:101A7000F9D1A869E618C01AA861286A1844286232
:101A80002846AFF3008004E0D5E9012114F8010BEA
:101A90009047B442F8D32846AFF3008070BD70473A
:101AA00070477047704710B5436913B1AFF30080BA
:101AB00001E0FFF7CBFF012010BD127800F12401F7
:101AC0000A7000224A700122EDE711684FF0FF32E0
:101AD000E9E70000074B70B50D467B4400F011F8B4
:101AE0000446284600F020F810B14FF0FF3070BDDA
:101AF000204670BD43ECFFFF01694A1C0261087873
:101B0000704700B58FB0CDE901310021059105493D
:101B10007944CDE9031011466846FFF763FF0FB023
:101B200000BD0000E5FFFFFF007B00F08000704774
:101B3000754600F02BF8AE4605006946534620F086
:101B40000700854618B020B5FEF70CFEBDE8204022
:101B50004FF000064FF000074FF000084FF0000B69
:101B600021F00701AC46ACE8C009ACE8C009ACE81C
:101B7000C009ACE8C0098D46704710B50446AFF304
:101B800000802046BDE81040FEF74CBB004870477F
:101B9000680000204FF04070E1EE100A704700002E
:101BA0000D0A2A2A2A2A2A2A2A2A2A2A2A2A2A2AD2
:101BB0002A2A2A2A2A2A2A2A2A2A2A2A2A2A2A2A85
:101BC0002A2A2A2A2A2A2A2A2A2A2A2A2A2A2A2A75
:101BD0002A2A2A2A2A2A2A2A2A2A2A2A2A2A2A2A65
:101BE0002A2A0D0A00000000081C0008000000203E
:101BF00038000000C4010008401C00083800002024
:101C000090060000E0010008000000000000000055
:101C100000000000000000000000000000000000C4
:101C2000010203040102030406070809007A030AFB
:101C3000000000000000000001020304060708097C
:040000050800018965
:00000001FF
