:020000040800F2
:1000000000050020050100084B1A00085B180008D5
:10001000491A00088F060008931D00080000000020
:10002000000000000000000000000000EB1A0008C3
:100030009106000800000000E91A0008ED1A000807
:100040001F0100081F0100081F0100081F01000810
:100050001F0100081F01000895060008310700086D
:100060001F0100081F010008CD0700081F0100083C
:100070001F0100081F0100081F0100081F010008E0
:100080001F0100081F0100081F0100081F010008D0
:100090001F0100081F0100081F010008690800086F
:1000A0001F0100081F0100081F0100081F010008B0
:1000B000511B00081F0100081F0100081F01000854
:1000C0001F0100081F0100081F0100081F01000890
:1000D0001F0100081F0100081F0100081F01000880
:1000E0001F0100081F0100081F010008DFF810D0E1
:1000F00000F0ACFA00480047D51D0008AFF30080BF
:10010000000500200648804706480047FEE7FEE756
:10011000FEE7FEE7FEE7FEE7FEE7FEE7FEE7FEE7B7
:100120004D1B0008ED000008202A04DB203A21FACC
:1001300002F00021704721FA02F3D040C2F1200200
:100140009140084319467047D2B201E000F8012BF4
:10015000491EFBD270470022F6E710B513460A4647
:1001600004461946FFF7F0FF204610BDF0B480EAC0
:100170000102D40F4200B2EB410F02D20246084600
:1001800011464A0042D0C30DDDB2C1F3C752AD1AC9
:10019000202D35DAC1F3160141F4000204B15242B8
:1001A000C5F1200602FA06F12A411044B3EBD05FF4
:1001B00023D0C4B1012DA0EBC35009DCF0BC4FF03B
:1001C000004202EAC352DBB200F5000000F0B3B90E
:1001D000400000F1807000EBC350A0F1807040EA55
:1001E000D170490009E0490841EAC071A0EBC35051
:1001F00000F50000400800EBC350F0BC00F092B9DD
:100200006142012202EB4101001BF6E7F0BC70479E
:1002100081F00041AAE780F00040A7E780EA0102F0
:1002200010B502F00043400022D04A001FD0010E5A
:1002300001EB1261C0F35600C2F3560240F4000015
:1002400042F40002A0FB022000047F39140400D015
:10025000401C50EA124001D44000491EC2B20C06B4
:1002600004EBD010401C4008802A02D003E000209C
:1002700010BD20F00100002900DA0020184310BD55
:100280002DE9FE4F81EA030404F0004421F000410F
:1002900000944FF0000B23F0004350EA01045ED0BD
:1002A00052EA03045BD0C3F30A54C1F30A552C4449
:1002B000A4F2F3340194A0FB0254C1F3130141F4FE
:1002C0008011C3F3130343F4801301FB024400FBCA
:1002D000034E840A970A44EA815447EA8357A4FBF1
:1002E000076802958D0A05FB07854FEA932C04FBEE
:1002F0000C542705029D4FEA065847EA1637B5EB1E
:1003000008056EEB070C870E920E47EA811742EA4A
:100310008312A7FB0201B6EB0B0164EB00042B0D6B
:1003200043EA0C335E1844EB1C50DA465146E7FBB7
:100330000201C5F313044FEA0B3343EA14534FEAA7
:100340000432019C43EA0603A4F10C040294009CCD
:10035000CDE900B400F02CF903B0BDE8F08F002027
:100360000146F9E72DE9F04D81EA030404F0004B62
:1003700021F0004514464FF0000A23F0004150EAF6
:10038000050220D054EA01021DD0C5F30A570246E7
:10039000C5F31303C1F31300C1F30A5640F48015EB
:1003A00043F48013A7EB0608101BD64608F2FD386D
:1003B00073EB050002D308F1010801E092185B41DC
:1003C000B8F1000F03DA00200146BDE8F08D0020EF
:1003D0004FF48011064684460EE0171B73EB0507A9
:1003E00005D3121B63EB050306434CEA010C4908D5
:1003F0004FEA300092185B4150EA0107EDD152EA12
:10040000030012D082EA040083EA0501084305D004
:10041000101BAB4106D20122002306E000224FF060
:10042000004302E06FF0010253101AEB06004CEBA0
:10043000085110EB0A0041EB0B01BDE8F04D00F054
:10044000A8B870B521F0004303430CD0C1F30A559E
:100450000024D5EB040564EB0403D617AD1AB341B1
:1004600002DB0020014670BD201841EB025170BD37
:100470000EB5C10F80EAE0700844CA07002140F2BF
:1004800033438DE80E000A460B4600F091F803B0A6
:1004900000BD00F0004220F00040C10DC0F3160086
:1004A00040F400007F2901DA00207047962903DC20
:1004B000C1F19601C84001E096398840002AF4D085
:1004C0004042704701F0004330B421F0004150EA4F
:1004D000010206D00A0DA2F56072C1F31301002AD1
:1004E00002DC30BC00207047440F44EAC104C10064
:1004F000E01830BC00EBC25000F014B8002801DB5B
:10050000C0F10040002901DBC1F100418142704788
:10051000002801DBC0F10040002901DBC1F10041EE
:10052000884270470029A8BF7047401C490008BF97
:1005300020F00100704710B4B0FA80FC00FA0CF013
:1005400050EA010404BF10BC704749B1CCF120044B
:1005500021FA04F411FA0CF118BF012121430843D8
:10056000A3EB0C01CB1D4FEA00614FEA102042BF04
:10057000002010BC704700EBC35010440029A4BFFA
:1005800010BC7047401C490008BF20F0010010BC9F
:10059000704710B5141E73F1000408DA401C41F1D5
:1005A000000192185B411A4301D120F0010010BDF7
:1005B0002DE9F04D92469B4611B1B1FA81F202E06D
:1005C000B0FA80F22032904600F052F804460F460E
:1005D00040EA0A0041EA0B0153465A46084313D049
:1005E000114653EA010019D0C8F140025046FFF706
:1005F0009BFD05460E4650465946424600F038F8E7
:10060000084305D0012004E020463946BDE8F08DBE
:100610000020054346EAE0762C4337430A986305F9
:10062000E40AA0EB08000022FD0A44EA47540A301D
:1006300002D500200146E9E7010510196941DDE90D
:10064000084500196941BDE8F04DA2E7064C074D89
:1006500006E0E06840F0010394E807009847103492
:10066000AC42F6D3FFF746FD101E0008301E00080E
:10067000202A04DB203A00FA02F100207047914062
:10068000C2F1200320FA03F3194390407047FEE7BC
:100690007047000070B5244D0121284600F030FA63
:1006A00040EA44040221284600F02AFA40EA4400C5
:1006B00010F003011D4806D001291CD002291ED0CC
:1006C000032909D11FE08289012A02D18288521CA4
:1006D00001E08288521E8280818141890022491C6A
:1006E0004181B0F904104369B1EB830F0FDB8280C5
:1006F000816C491C12E08289032AEAD1E6E702896B
:10070000002AE6D1E2E78289022AE2D1DEE75B42F3
:10071000B1EB830F03DC8280816C491E8164BDE8EC
:100720007040012000F0F0B80014014000000020EB
:1007300070B5244D0121284600F0E2F940EA440456
:100740000221284600F0DCF940EA440010F00301E1
:100750001D4806D001291CD002291ED0032909D129
:100760001FE08289012A02D18288521C01E082881E
:10077000521E8280818141890022491C4181B0F949
:1007800004104369B1EB830F0FDB8280816C491C3D
:1007900012E08289032AEAD1E6E78289002AE6D1BB
:1007A000E2E78289022AE2D1DEE75B42B1EB830F06
:1007B00003DC8280816C491E8164BDE870400220A8
:1007C00000F0A2B8001401400000002070B5244DD4
:1007D0001021284600F094F940EA440440212846BC
:1007E00000F08EF940EA440010F003011D4806D0E5
:1007F00001291CD002291ED0032909D11FE002893A
:10080000012A02D14288521C01E04288521E4280D5
:100810000181C1880022491CC180B0F9021003691E
:10082000B1EB830F0FDB4280416A491C12E0028961
:10083000032AEAD1E6E70289002AE6D1E2E7028943
:10084000022AE2D1DEE75B42B1EB830F03DC428098
:10085000416A491E4162BDE87040102000F054B862
:10086000000C01400000002070B5244D10212846E6
:1008700000F046F940EA44044021284600F040F9DF
:1008800040EA440010F003011D4806D001291CD0A5
:1008900002291ED0032909D11FE00289012A02D1B1
:1008A0004288521C01E04288521E42800181C18868
:1008B0000022491CC180B0F902100369B1EB830F1B
:1008C0000FDB4280416A491C12E00289032AEAD107
:1008D000E6E70289002AE6D1E2E70289022AE2D1AC
:1008E000DEE75B42B1EB830F03DC4280416A491EC5
:1008F0004162BDE87040402000F006B8000C0140A5
:100900000000002070470000044910B50A68024248
:1009100002D00860FFF7F6FF10BD0000140401408C
:100920002DE9F84FDFF8B891002409F1040A0AF123
:10093000040B23460F270BF1040EC9E00125A54047
:100940002A40AA427DD1674ED1F804C0ACEB06081C
:10095000B44532D014DCBCF1030F3AD009DCBCF151
:10096000000F2AD0BCF1010F1CD0BCF1020F31D115
:100970001DE0BCF1110F17D0BCF1120F2AD119E004
:10098000B8F5881F19D006DCB8F5803F15D0B8F54A
:10099000801F1FD111E0B8F5001F0ED0B8F5041F5D
:1009A00018D10AE0CB6815E0CB681B1D12E0CB68BC
:1009B00008330FE0CB680C330CE08B682BB1012BB4
:1009C0004FF0080303D0456104E0042302E0056111
:1009D00000E00023FF2A01D8064601E000F10406EA
:1009E0004FEA840501D9A5F12005D6F8008007FA61
:1009F00005FC28EA0C0803FA05F548EA0508C6F8DC
:100A000000804D68ED0062D5374DAE6946F00106B5
:100A1000AE61AD6924F0030605F001050095334D84
:100A200006EB050CDCF80850A607360F07FA06F8A7
:100A300025EA0805DFF8B880404503D14FF00008EB
:100A400017E044E0DFF8AC80404502D14FF00108E8
:100A50000FE0DFF8A480404502D14FF0020808E023
:100A6000DFF89880404502D14FF0030801E04FF0D5
:100A7000040808FA06F848EA0508CCF808804D682A
:100A8000D9F80060ED034D4601D5164300E09643CA
:100A90002E604D68DAF80060AD03554601D5164367
:100AA00000E096432E604D68DBF80060ED025D4685
:100AB00001D5164300E096432E604D68DEF80060D5
:100AC000AD02754601D5164300E096432E60641CC6
:100AD0000D682A46E5407FF431AFBDE8F88F00008D
:100AE000000401400000111000100240000001400D
:100AF00000080140000C01400010014000140140BA
:100B00008068084000D0012070470AB10161704739
:100B10000904FBE70148806870470000600000207E
:100B200002488168027811448160704760000020AB
:100B3000074810B5016841F010010160032000F082
:100B400075F8002000F006F800F024F8002010BD31
:100B50000020024070B50D4D04464FF47A7128789C
:100B6000B1FBF0F00A490968B1FBF0F000F0CCFAF3
:100B700048B9102C07D200222146501E00F036F84A
:100B800000206C6070BD012070BD0000600000207E
:100B90006C0000200C4808B5816941F001018161B9
:100BA000816901F001010091C16941F08051C16189
:100BB000C06900F0805000900448416821F0E06175
:100BC00041F00071416008BD00100240000001408A
:100BD000002809DB00F01F0201219140400980003C
:100BE00000F1E020C0F8001170470000F0B40E4B97
:100BF0001B680C46C3F30223C3F10705042D00D97B
:100C00000425191D072901D2002300E0DB1E01265F
:100C100006FA05F1491E214099409E40761E164075
:100C20003143F0BC01F0B6B80CED00E0064900F02D
:100C3000070208684FF6FF03184040EA0220034A03
:100C400010430860704700000CED00E00000FA055A
:100C50002DE9F0470F46050061D0434E306800F0A3
:100C60000700B84209D2306820F0070038433060EE
:100C7000306800F00700B84251D128683B4C81072A
:100C800012D5400703D5606840F4E06060602878C2
:100C9000000703D5606840F4605060606068A96830
:100CA00020F0F000084360602878C00728D068680A
:100CB000012810D02168022810D0890700292EDAD7
:100CC000616821F0030101436160FFF723FF804663
:100CD00041F288390DE021688903EFE78901EDE7EA
:100CE000FFF718FFA0EB0801494502D90320BDE832
:100CF000F0876068696800F00C00B0EB810FEFD1FD
:100D0000306800F00700B8420BD9306820F00700C7
:100D100038433060306800F00700B84201D001204D
:100D2000E5E72878400705D56068E96820F4E060C9
:100D3000084360602878000706D56068296920F4B8
:100D4000605040EAC100606000F018F86168084A2D
:100D5000C1F30311515CC8400649086006480068A9
:100D6000FFF7F8FE0020C2E700200240001002401A
:100D7000001E00086C0000206400002012A185B055
:100D80000FC98DE80F0014A0144A00680490516840
:100D9000134801F00C03042B10D0082B0ED1C1F323
:100DA0008343C9031DF803000AD5516804AAC1F39F
:100DB0004041515C0A4A5043B0FBF1F005B0704726
:100DC00008494843FAE7000002030405060708093A
:100DD0000A0B0C0D0E0F1010010200000010024053
:100DE00000127A0000093D002DE9F84F040070D090
:100DF0002078C04DC00749D06868C0F38100012841
:100E000007D06868C0F38100022809D16868C00370
:100E100006D52868800339D560680028E7D035E01A
:100E20006068B0F5803F0BD010B1B0F5A02F11D0A5
:100E3000286820F480302860286820F4802002E0B0
:100E4000286840F480302860606890B1FFF762FE47
:100E500006460AE0286840F480202860F0E700BFDA
:100E6000FFF758FE801B642873D828688003F7D5E5
:100E70000CE0FFF74FFE064605E000BFFFF74AFE15
:100E8000801B6428F0D828688003F7D420789A4E15
:100E900080074FF001094FF0000839D5686810F05D
:100EA0000C0F07D06868C0F38100022809D1686878
:100EB000C00306D42868800714D52069012808D10A
:100EC00010E02069B0B1C6F80090FFF723FE074696
:100ED00005E00AE1FFF71EFEC01B0228C4D82868FF
:100EE0008007F7D52868616920F0F80040EAC10062
:100EF00028600DE0C6F80080FFF70CFE074604E00E
:100F0000FFF708FEC01B022823D828688007F7D403
:100F1000207800072CD57948A169D9B1C0F8009094
:100F2000FFF7F8FD074604E0FFF7F4FDC01B0228B9
:100F30000FD8686A8007F7D571484FF4FA510068F6
:100F4000B0FBF1F0009000BF0098411E0091FAD272
:100F50000EE080E0C0F80080FFF7DCFD074604E00B
:100F6000FFF7D8FDC01B022875D8686A8007F7D440
:100F70002078400760D5E8690027C00008D4E869F8
:100F800040F08050E861E869012700F0805000904F
:100F90005C480168C90513D40168834641F4807137
:100FA0000160FFF7B7FD824606E000BFFFF7B2FD24
:100FB000A0EB0A0064284ED8DBF80000C005F5D588
:100FC000E06801280AD008B1052813D0286A20F06B
:100FD00001002862286A20F0040002E0286A40F03C
:100FE00001002862E06841F2883B98B1FFF792FD6A
:100FF00082460BE0286A40F004002862EEE700BF5A
:10100000FFF788FDA0EB0A0159455AD8286A8007E6
:10101000F6D50CE0FFF77EFD824605E0FFF77AFD8E
:10102000A0EB0A0159454CD8286A8007F6D41FB1B5
:10103000E86920F08050E861E06988B36968C1F32D
:101040008101022944D00228C6F8608004D0FFF74D
:1010500061FD044638E034E0FFF75CFD074604E03C
:10106000FFF758FDC01B02282BD828688001F7D451
:10107000206AB0F5803F05D16868A16820F400308F
:1010800008436860D4E908010843696821F47411D1
:1010900008436860C6F86090FFF73CFD044606E030
:1010A00025E000BFFFF736FD001B022809D828689D
:1010B0008001F7D51BE000BFFFF72CFD001B0228C5
:1010C00002D90320BDE8F88F28688001F4D40EE02F
:1010D0000128F7D06868226A00F48031914204D177
:1010E000616A00F47010884201D00120EAE7002014
:1010F000E8E7000000100240000042428004424243
:101100006C0000200070004010B5401EB0F1807FE0
:1011100001D3012010BD4FF0E02460610F21601762
:1011200000F038FE0020A06107202061002010BDE3
:101130007047704770B590F83C20012A26D00124F2
:1011400080F83C40022280F83D2003685A689D6880
:1011500022F070060A6832435A600D4B02689A42C8
:1011600008D0B2F1804F05D00A4B9A4202D00A4B08
:101170009A4204D1496825F080031943916080F8B0
:101180003D40002180F83C10084670BD022070BD33
:10119000002C0140000400400008004010B504008D
:1011A00003D094F83D0010B107E0012010BD0020ED
:1011B00084F83C00204600F01FF8022084F83D002F
:1011C000211D206800F0CAFC012084F8460084F844
:1011D0003E0084F83F0084F8400084F8410084F821
:1011E000420084F8430084F8440084F8450084F801
:1011F0003D00002010BD000008B501681048B1F1A5
:10120000804F0BD00F4A914207D1C16941F00201D2
:10121000C161C06900F00200009008BDC16941F0E1
:101220000101C161C069002200F001000090114677
:101230001C20FFF7DBFCBDE808401C20FFF7C8BC02
:10124000001002400004004090F83D10012901D038
:1012500001207047022180F83D100168CA6842F001
:101260000102CA6000680B49884208D0B0F1804F83
:1012700005D00949884202D00849884204D18168D2
:1012800001F00701062903D0016841F00101016066
:1012900000207047002C014000040040000800407E
:1012A00070B5044690F83C00012817D0012584F859
:1012B0003C50022084F83D002068826822F07702CA
:1012C00022F47F4282600868502830D00DDC20284C
:1012D0004DD005DC98B310283BD148E0022070BD0A
:1012E000302844D0402834D139E0602828D07028F4
:1012F00006D0B0F5805F2CD0B0F5005F29D10AE0B0
:10130000CB68D1E90121206800F06BFC206881687E
:1013100041F0770109E0CB68D1E90121206800F0B4
:1013200060FC2068816841F48041816011E0CA68F6
:101330004968206800F00AFD5021206807E016E0A7
:10134000CA684968206800F012FD6021206800F03A
:1013500052FC84F83D50002084F83C0070BDCA68FF
:101360004968206800F0F2FC40212068EFE722681D
:1013700001461046EBE7704770B504460068016906
:101380004FF00005C943890715D4C168C9438907CF
:1013900011D4E91E0161012020772068806980074F
:1013A000204602D0FFF7E7FF04E000F0C7F8204630
:1013B00000F056F9257720680169C943490717D419
:1013C000C168C943490713D46FF0040101610220C9
:1013D00020772068806910F4407F204602D0FFF714
:1013E000CAFF04E000F0AAF8204600F039F925779A
:1013F00020680169C943090716D4C168C9430907B0
:1014000012D46FF008010161042020772068C069C0
:101410008007204602D0FFF7AEFF04E000F08EF810
:10142000204600F01DF9257720680169C943C906E7
:1014300017D4C168C943C90613D46FF01001016104
:10144000082020772068C06910F4407F204602D031
:10145000FFF791FF04E000F071F8204600F000F97A
:10146000257720680169C943C90708D1C168C94304
:10147000C90704D1891E0161204600F041F92068A6
:101480000169C943090609D4C168C943090605D4DD
:101490006FF0800101612046FFF74AFE2068016974
:1014A000C943490609D4C168C943490605D46FF048
:1014B00040010161204600F0CFF920680169C9436D
:1014C00089060BD4C168C943890607D46FF020018F
:1014D00001612046BDE87040FFF72BBE70BD0000E3
:1014E00000B585B00021009101910291039100683F
:1014F0000F49884219D10F48816941F00401816187
:10150000816901F004010491816941F00801816160
:101510008069694600F008000490012000900220D4
:10152000019003900448FFF7FBF905B000BD0000EF
:101530000004004000100240000C0140704770B5EC
:10154000044690F83C000D4601280AD0012084F89A
:101550003C0042B1042A18D0082A2AD00C2A4DD1C6
:1015600039E0022070BD206800F04EFB20688169E0
:1015700041F0080181612068816921F004018161E5
:10158000206881692A69114311E0206800F064FB3A
:101590002068816941F4006181612068816921F4DA
:1015A00080618161206881692A6941EA0221816143
:1015B00024E0206800F07CFB2068C16941F008014C
:1015C000C1612068C16921F00401C1612068C1695D
:1015D0002A69114311E0206800F096FB2068C16978
:1015E00041F40061C1612068C16921F48061C16179
:1015F0002068C1692A6941EA0221C161002084F89A
:101600003C0070BD10B5040003D094F83D0010B14B
:1016100007E0012010BD002084F83C00204600F0C7
:101620001EF8022084F83D00211D206800F096FA83
:10163000012084F8460084F83E0084F83F0084F8D6
:10164000400084F8410084F8420084F8430084F8A4
:10165000440084F8450084F83D00002010BD704728
:101660007047000010B50446022249B104290ED08B
:10167000082913D094F84100012816D0012010BD8C
:1016800094F83E000128F9D184F83E200FE094F848
:101690003F000128F2D184F83F2008E094F8400090
:1016A0000128EBD184F8402001E084F84120012298
:1016B000206800F089FA0F492068884203D1426C03
:1016C00042F4004242642068884208D0B0F1804F62
:1016D00005D00949884202D00849884204D181686E
:1016E00001F00701062903D0016841F00101016002
:1016F000002010BD002C0140000400400008004004
:101700002DE9FC5F4D490068096888427ED14C4C48
:101710004FF00008E788A762A4F806802069FEF76A
:10172000A7FEDFF820B1DFF820915A464B46FEF7BE
:10173000A7FD0222FEF785FE0546C7EB07100E4601
:101740008000FEF795FE2A463346FEF70BFEFEF7B5
:10175000B9FEA06301907800FEF78AFEDFF8F0A0E2
:101760003A4A5346FEF78CFD2A463346FEF7FAFD09
:10177000FEF7A8FE60646789E764A4F80A806069E0
:10178000FEF776FE5A464B46FEF77AFD0222FEF73A
:1017900058FE0546C7EB07100E468000FEF768FEB0
:1017A0002A463346FEF7DEFDFEF78CFE60657800C4
:1017B000FEF75EFE254A5346FEF762FD2A46334693
:1017C000FEF7D0FDFEF77EFEE0652078002832D0DF
:1017D000206C0090D4E90C230199E06B00F036F9FD
:1017E000E062206C0090D4E91510D4E90C2300F0DD
:1017F0002DF92065114D60784FF48041154E4F1042
:101800004835012805D0022809D000E013E0404601
:101810000FE001223046FFF778F9002204E00022B1
:101820003046FFF772F9012239463046FFF76DF96D
:10183000E06A2968C863BDE8FC9F000070000020D2
:10184000000000207B14AE47E17A843F6F1283C012
:10185000CA210940001001407047FEE72DE9F04120
:1018600086B000253448009501950295039581695D
:1018700041F010018161816901F0100104918169D9
:1018800041F0080181618069DFF8B08000F0080054
:101890004FF480440490002221464046FFF735F97A
:1018A0006710002239464046FFF72FF9009401AA3D
:1018B0000124022682E8700069464046FFF730F8AE
:1018C00001AA009782E8700069464046FFF728F8B1
:1018D0001B4D5020CDE90005694602941948FFF7D9
:1018E0001FF80320CDE90005694602941648FFF76A
:1018F00017F8002211460A20FFF778F90A20FFF7AF
:1019000067F9002211461720FFF770F91720FFF73B
:101910005FF9002211460620FFF768F90620FFF75D
:1019200057F9002211460720FFF760F90720FFF75B
:101930004FF906B0BDE8F0810010024000100140F0
:1019400000003110000C01400014014010B586B0B9
:1019500000241648009401940294039404944FF0D8
:1019600080410594016045F6C051C0E90114092188
:10197000C0E903148461FFF711FC08B172B6FEE7F9
:101980004FF48050009069460848FFF789FC08B181
:1019900072B6FEE7049404A904480594FFF7CAFB55
:1019A000002801D072B6FEE706B010BD700000201E
:1019B00010B58EB000240794089409940A940B94EF
:1019C0001C2168460C94FEF7C6FB1E481C490160AA
:1019D0000B21C0E901146421C0E903148461FFF7FD
:1019E000DDFB08B172B6FEE74FF48050079007A9FF
:1019F0001448FFF755FC08B172B6FEE71148FFF72F
:101A000001FE08B172B6FEE70B940BA90D480C94C9
:101A1000FFF790FB08B172B6FEE76020CDE9000445
:101A200002940822694607480494FFF788FD08B12C
:101A300072B6FEE70348FFF753FD0EB010BD00007D
:101A400000040040B8000020FEE7FEE72DE9F05F4B
:101A50001E461446DFF884B0214F0A9DFEF7D8FBDE
:101A6000804601462046FEF7D9FB1E4C824628469A
:101A7000216AFEF7D3FB814641463046FEF7CEFB96
:101A80004946FEF773FB3946FEF7C8FBE169FEF7EE
:101A90006DFB0146C4E906815046FEF767FB3146FF
:101AA000FEF764FB064601462846FEF7B1FB2062BE
:101AB0005C4658463146FEF721FD01D2254607E037
:101AC00000203146FEF724FD01D2002500E0354616
:101AD0002846FEF7DEFC00B2BDE8F09F0000C842D9
:101AE0000AD7233C0000002070477047FFF718B862
:101AF00030B58FB028216846FEF72DFB14210AA8C7
:101B0000FEF729FB02250120049000951020059086
:101B100000244FF42010CDE9084007956846FFF7F0
:101B200063F908B172B6FEE70F20CDE90A054FF45C
:101B3000A060CDE90C4001210AA80E94FFF788F8B7
:101B4000002801D072B6FEE70FB030BD704700002C
:101B50000148FFF711BC000070000020F0B50268DA
:101B6000164B174C174D4FF08047984205D0B8429E
:101B700003D0A04201D0A84203D122F070064A68E7
:101B80003243984205D0B84203D0A04201D0A842C7
:101B900003D122F44074CA6822434C6922F08002C7
:101BA000224302608A68C2620A688262984201D156
:101BB0000969016301214161F0BD0000002C014071
:101BC000000400400008004010B501F01F0301218F
:101BD000046A99408C430462016A9A40114301628D
:101BE00010BD10B5846842EA032224F47F440A43FE
:101BF0002243826010BD826822F070020A4342F0E4
:101C0000070181607047000030B5026A22F00102CE
:101C10000262026A4368846924F073050C682C43ED
:101C200022F002058A682A430A4DA8420BD122F00D
:101C30000805CA6823F440732A434D6922F0040260
:101C40001D438B692B434360846149684163026291
:101C500030BD0000002C014030B5026A22F01002B5
:101C60000262026A436884690D6824F4E64444EA27
:101C700005248D6822F0200242EA05120B4DA8428D
:101C80000ED1CD6822F0800242EA05124D6923F49C
:101C9000406343EA85038D6922F0400243EA8503ED
:101CA0004360846149688163026230BD002C014059
:101CB00030B5026A22F480720262036A4268C46923
:101CC00023F4007324F073050C682C438D6843EAF9
:101CD00005230C4DA8420ED1CD6823F4006343EADE
:101CE00005234D6922F4405242EA05128D6923F41E
:101CF000806342EA05124260C4614968C1630362BD
:101D000030BD0000002C014030B5026A22F4805240
:101D10000262046A4268C3690D6823F4E64343EA39
:101D200005238D6824F4005444EA0534064DA84286
:101D300004D14D6922F4804242EA85124260C361B7
:101D400049680164046230BD002C014010B5036A8B
:101D5000046A24F001040462846924F0F00444EA73
:101D6000021423F00A020A438461026210BD10B516
:101D7000036A23F0100303628369046A23F4704347
:101D800043EA023224F0A00343EA011182610162B6
:101D900010BDFEE70907090E002804DB00F1E02072
:101DA00080F80014704700F00F0000F1E02080F888
:101DB000141D704702E008C8121F08C1002AFAD19A
:101DC00070477047002001E001C1121F002AFBD1BB
:101DD00070470000FEF7ACFEFFF78AFEFFF73EFDFE
:101DE000FFF7B4FDFFF7E4FD08210448FFF73AFCD4
:101DF00002484838FFF728FAFEE70000B800002044
:101E000000000000000000000102030406070809AA
:101E1000301E00080000002070000000B41D000803
:101E2000A01E00087000002090040000C41D0008DF
:101E300000000000000000000000000000000000A2
:101E40004E0100004E0100000000000000000000F4
:101E50000000000000000000000000000000000082
:101E60000000000000000000000000000000000072
:101E70000000000000000000000000000000000062
:101E80000000000000000000000000000000000052
:101E90000100000010000000000000000024F40019
:04000005080000ED02
:00000001FF
